:020000041000EA
:1000000000B5324B212058609868022188439860DF
:10001000D860186158612E4B002199600221596106
:100020000121F02299502B49196001219960352056
:1000300000F044F80222904214D00621196600F024
:1000400034F8196E01211966002018661A6600F04E
:100050002CF8196E196E196E052000F02FF8012189
:100060000842F9D1002199601B49196000215960AB
:100070001A491B48016001219960EB211966A021F2
:10008000196600F012F800219960164914480160C1
:100090000121996001BC002800D000471248134993
:1000A000086003C880F30888084703B5996A0420EC
:1000B0000142FBD001200142F8D103BD02B5186610
:1000C0001866FFF7F2FF186E186E02BD00000240BE
:1000D000000000180000070000035F00212200005C
:1000E000F4000018222000A00001001008ED00E03C
:1000F00000000000000000000000000074B24E7A12
:1001000000200420F7010010C3010010C5010010F9
:10011000C1010010C1010010C1010010C101001097
:10012000C1010010C1010010C1010010C701001081
:10013000C1010010C1010010C9010010CB01001065
:10014000CD010010CD010010CD010010CD01001037
:10015000CD010010CD010010CD010010CD01001027
:10016000CD010010CD010010CD010010CD01001017
:10017000CD010010CD010010CD010010CD01001007
:10018000CD010010CD010010CD010010CD010010F7
:10019000CD010010CD010010CD010010CD010010E7
:1001A000CD010010CD010010CD010010CD010010D7
:1001B000CD010010CD010010CD010010CD010010C7
:1001C00000BE00BE00BE00BE00BE00BEEFF3058054
:1001D000103800BEF2EB887118960010409600109F
:1001E0003402001090A31AE700201F49086006C8D7
:1001F00081F3088810471D48006800282FD10DA4FE
:100200000ECC002902D000F012F8F9E71849194A7B
:10021000002000E001C19142FCD1174988471749ED
:1002200088471749884700BEFDE701C901C29A42C5
:10023000FBD3704740960010C000002034450020DA
:10024000B4DA00100000042000000420B4DA00102A
:10025000001004200010042000000000704709482E
:1002600003F08EFE0047000008ED00E0000000D023
:1002700038450020384A00200D2C001015100010C1
:10028000CD2B00105756000006005250ABB3605300
:10029000C494001006005250861C0302D49400102F
:1002A000060052505422A29DE094001005005250C6
:1002B000DE65F468B4DA0010F8B5C0460448054BB2
:1002C00010B5834203D0044B002B00D0984710BDDB
:1002D000344500203445002000000000064807494E
:1002E000091A8B10C90FC91810B5491003D0044B57
:1002F000002B00D0984710BD344500203445002025
:100300000000000010B5074C2378002B09D1FFF73F
:10031000D5FF054B002B02D0044800E000BF0123AD
:10032000237010BD40460020000000000859001056
:10033000054B10B5002B03D00449054800E000BF71
:10034000FFF7CCFF10BDC04600000000444600206F
:100350000859001070B506000D1C081C04F042FD81
:1003600084B2002C12D0200004F0E2FC011C281CF6
:1003700004F0B5FC8721C90504F0D1FC04F032FD7E
:10038000C3B21B0224041C43346070BD0023F8E791
:1003900010B504001022002104F0D8FD80235B0278
:1003A0002360F8235B0263608023DB02A360C02329
:1003B0001B03A360200010BD70B504000D00FFF703
:1003C000E7FFEA1C636809490B40ED012B43120368
:1003D00013436360E268D200D208802189050A4392
:1003E000E260034A13406360200070BD7F00FEFF9F
:1003F000FFFFFF9FF0B5CE46474680B587B00400AB
:100400000D00160098460EAB80CB1B7899462A4B00
:1004100098424DD00721404600F0CEFE01230093C4
:1004200042462900200005F021F9310002A8FFF71B
:10043000C3FF059B214A1340424692021343059392
:100440004B46002B36D0202204991D4B19408023A7
:100450009B020B435206F82189050A40134304937B
:100460009B009B088022D20513430493052002F0D1
:10047000A7FA04F05DFC80461249381C04F04FFCDA
:10048000011C404604F035FC011C02A8FFF762FF86
:1004900002AB32002900200005F03AF9236801225E
:1004A000AA401343236007B0C0BCB946B046F0BDB4
:1004B0000621B0E71822C7E700002050FF83FFFFA6
:1004C000FFFFF5C10000204110B50121014802F0F5
:1004D0005BFB10BD28230000064B03221A60064A6E
:1004E00000231360054A1360054A1360054A136030
:1004F0007047C046283F002010480020F8460020E2
:10050000AC4600207846002010B5054804F092FE65
:10051000044804F08FFE044804F08CFE10BDC04671
:1005200008590010A47C00103868001010B5054868
:1005300004F080FE044804F07DFE044804F07AFED6
:1005400010BDC04638680010A47C0010C06E0010BA
:1005500010B50B4804F06EFE0A4804F06BFE0A4822
:1005600004F068FE094804F065FE094804F062FEE4
:10057000084804F05FFE084804F05CFE10BDC04669
:10058000F8840010105900103859001070590010EC
:10059000A8590010045A0010605A001010B51648EF
:1005A00004F048FE154B1B68002B1CD0144915485D
:1005B00004F070FE114B5B68002B16D010491248F6
:1005C00004F068FE0D4B9B68002B10D00C490F48BF
:1005D00004F060FE094BDB68002B0AD008490C4888
:1005E00004F058FE10BD0B49E1E70A49E7E7094965
:1005F000EDE70849F3E7C046B45A0010CC470020A5
:100600009C5A0010E85A00101C5B0010505B001050
:10061000845B0010A85A001000B583B004484A2338
:100620000093183B5B221B2104F034FE03B000BD95
:10063000B85B001070B5FFF7EFFF0C4804F0FAFD4F
:100640000B4C200004F0F6FD0A4D280004F0F2FDEA
:10065000094804F0EFFD280004F0ECFD200004F050
:10066000E9FD064804F0E6FD70BDC046C45B00101D
:10067000E45C0010F45D0010E85E0010E05F001024
:1006800070B5FFF7C9FF0C4804F0D4FD0B4C2000F7
:1006900004F0D0FD0A4D280004F0CCFD094804F018
:1006A000C9FD280004F0C6FD200004F0C3FD064883
:1006B00004F0C0FD70BDC046F06000104C62001038
:1006C0009C630010D0640010086600101B4B1B6870
:1006D000012B07D01A4B5B68DB03FBD4184B0022BD
:1006E0001A617047174B1B68032B0CD0022B13D0D9
:1006F000012B1AD0124B5B68DB03FBD4104BFE229C
:10070000D2031A61EDE70E4B5B68DB03FBD40C4BA5
:10071000FE22D2051A61E4E7094B5B68DB03FBD4D8
:10072000074BFE22D2011A61DBE7054B5B68DB0356
:10073000FBD4034B044A1A61D3E7C046E0470020CC
:1007400000002050283F002000007F5270B5FFF7C6
:1007500063FF244B00221A60FFF7B8FF224804F021
:1007600099FD224804F066FD214C200004F062FD52
:10077000200004F05FFD1F4804F05CFD1E4C2000CB
:1007800004F058FD200004F055FD1C4804F052FD13
:100790000A2004F01BFD0A2004F018FD184C20006C
:1007A00004F048FD174D280004F044FD164E3000BB
:1007B00004F040FD154804F03DFD300004F03AFD22
:1007C000280004F037FD200004F034FDFFF784FE1C
:1007D000FFF79AFEFFF7E2FEFFF7BAFEFFF7A6FE6D
:1007E00070BDC046E04700205867001060670010E9
:1007F0004468001010690010F0690010BC6A001015
:10080000A46B0010506C0010F46C0010886D001088
:1008100010B5002005F026F804F0D2FF0A4B1B6843
:10082000022B08DD04F0D6FFFA21490003F0D4FBC7
:10083000064B196010BD04F0CDFF242103F0CCFB62
:10084000024B1960F6E7C046C84700200C4800205C
:1008500070B5174B1D68280004F070FA154904F0B4
:100860005EFA041C144B186804F068FA011C201C82
:1008700004F03FFA041C114B1A681148290004F0D7
:1008800009FD104804F006FD201C04F079FA01006F
:100890000D4C200004F0FEFC2E2004F097FC0021FB
:1008A000200004F0F7FC094804F0F4FC70BDC046D9
:1008B000AC4600200000C84278460020F8460020E0
:1008C0002C6E00107C6E0010A46E0010A86E00103C
:1008D00010B5FFF7A1FE214B00221A60FFF7F6FECC
:1008E0001F4804F0A7FC1F4C200004F0A3FC2000CC
:1008F00004F0A0FC1C4804F09DFC1C4C200004F0FB
:1009000099FC200004F096FC194804F093FC0A209E
:1009100004F05CFC0A2004F059FC164804F08AFC40
:10092000154C200004F086FC200004F083FC20001D
:1009300004F080FC200004F07DFC200004F07AFC30
:100940000E4804F077FCFFF7DFFDFFF781FFFFF7AC
:10095000C3FDFFF723FEFFF7E9FD10BDE0470020D0
:10096000C86E0010486F0010CC6F00104C70001063
:10097000C470001034710010C47100105C7200105B
:1009800010B5FFF749FE264B00221A60FFF79EFEC6
:10099000244804F04FFC244804F04CFC234804F0A5
:1009A00049FC234804F046FC224804F043FC22485A
:1009B00004F040FC214804F03DFC214804F03AFCDE
:1009C000204804F037FC0A2004F000FC1E4804F024
:1009D00031FC1E4804F02EFC1D4804F02BFC1D4881
:1009E00004F028FC1C4804F025FC1C4804F022FC00
:1009F0001B4804F01FFC1B4804F01CFC1A4804F0C0
:100A000019FC1A4804F016FCFFF77EFDFFF720FFE3
:100A1000FFF762FDFFF7C2FDFFF788FD10BDC0467E
:100A2000E0470020EC720010407300109873001033
:100A3000EC73001044740010A0740010E8740010EF
:100A4000247500105875001088750010D8750010B6
:100A50002C76001080760010D07600102C770010D5
:100A60007C770010C0770010F87700102478001011
:100A700010B5FFF7D1FD204B00221A60FFF726FECC
:100A80001E4804F0D7FB1E4804F0D4FB1D4804F0B8
:100A9000D1FB1D4804F0CEFB1C4C200004F0CAFB27
:100AA000200004F0C7FB1A4804F0C4FB0A2004F03D
:100AB0008DFB0A2004F08AFB164804F0BBFB1648A5
:100AC00004F0B8FB154804F0B5FB154804F0B2FB80
:100AD000144804F0AFFB144804F0ACFB134804F0D6
:100AE000A9FBFFF711FDFFF7B3FEFFF7F5FCFFF7DA
:100AF00055FDFFF71BFD10BDE047002038780010C2
:100B000004790010B4790010607A0010207B001086
:100B1000C87B0010AC7C0010007E0010307F0010FD
:100B200050800010888100109C820010BC8300104F
:100B300010B5264B19682648052204F0ABFB254B5F
:100B40001968254804F0A6FB244B1B68022B27DDFF
:100B50002349244804F09EFB204B1B68022B21DD17
:100B6000214B1A6853009B185900204BC918204884
:100B700004F090FB194B1A68D10F50180123034061
:100B80005B1A012B1ED1022A14DD174B1A68930041
:100B90009B189900174BC918174804F07BFB10BD30
:100BA0001649D6E7164B104A1268995C154804F0AE
:100BB00071FBDFE70C4B1A6853009B185900124B6E
:100BC000C918E9E7114804F035FBE8E710480020B0
:100BD0001C850010283F0020A0850010C847002079
:100BE00008850010CC8500100C480020183100202A
:100BF000F4850010380200200486001010850010D3
:100C000004400020FC8500102C3F002024860010AA
:100C100010B504000848210004F03CFB074B1C60A1
:100C2000FFF75AFCFFF752FDFFF7F2FDFFF780FFD9
:100C3000FFF77CFC10BDC04628860010C847002086
:100C400010B50400724B1B68002B02D0012B3BD067
:100C500010BD013C012C33D86E4B1B78313BDBB20D
:100C6000032B29D8FFF7D8FC694B01221A60694B86
:100C70001A781300303B332A13D0032B07DC012BE7
:100C80000BD0022B11D10220FFF7C2FFE0E7042BAB
:100C90000BD10420FFF7BCFFDAE70120FFF7B8FF14
:100CA000D6E70320FFF7B4FFD2E75B4804F0C2FAAF
:100CB0005A4B00221A60CBE7594804F0BBFAC7E749
:100CC000584804F0B7FAC3E7574B1B68002BBFD056
:100CD000FFF7A2FC554A1368013313604F4B1968A4
:100CE000022934DC022C4ADC01204A4B1978504B93
:100CF000504A12689A5C914247D1002848D04E4A27
:100D00001368013313604D4A136801331360464B77
:100D10001B68022B65DDFFF78DFC474B1B68042B1E
:100D200068DD3E4B1B68013B454A9B000121995001
:100D30001368002B08D05368002B05D09368002B54
:100D400002D0D368002B52D1FFF792FE80E73D48D6
:100D500004F0A0FA002109290FDC2E4B5C5C3A4B11
:100D6000344A10684200121852009B185B5C9C4287
:100D700033D1002B33D00131EDE70120BDE73348FB
:100D8000210004F087FA0020AFE7314804F082FA2E
:100D9000FFF776FC244C2368013B2360264B00229E
:100DA0001A602C4A136801331360FFF78FFCFFF7BA
:100DB000ABFB2168012926D0274A284804F06AFAAB
:100DC000FFF7B4FB184B1B68002B1EDDFFF79CFBE5
:100DD000FFF7AEFEFFF7AAFB3AE700208DE7012000
:100DE0008BE7114A01331360FFF770FC93E7FFF7BD
:100DF0006FFD2DE7FFF788FBFFF70AFDFFF798FE71
:100E0000FFF794FB24E7164AD7E7FFF7B9FD1FE782
:100E1000E0470020FC46002050860010C847002014
:100E20006086001090860010283F00207846002041
:100E3000044000200C48002010480020AC46002050
:100E4000CC470020AC86001018310020B886001076
:100E5000C4860010F846002048860010DC8600108A
:100E60004086001010B500F0F5F910BD0123834055
:100E7000002903D0D022120653627047D0221206F6
:100E80009362FAE710B501220C2100F0D3F910BDEE
:100E900010B50C4B1B68112B0FDC0B4A2E21D154C3
:100EA0000A4A1268002A01D1002B07D0054A1368AC
:100EB000013313602E2004F089F910BD044804F0BA
:100EC000E9F9F3E7E4470020E8470020C4470020A1
:100ED0000487001010B50C4B1B68112B0FDC0B4A5C
:100EE0002D21D1540A4A1268002A01D1002B07D0C3
:100EF000054A1368013313602D2004F067F910BD13
:100F0000044804F0C7F9F3E7E4470020E84700206D
:100F1000C44700200487001010B50B4B1B68C62B7C
:100F200005DC0A4A0021D154074A013313600749FE
:100F3000074804F0AFF9044C2068FFF781FE002356
:100F40002360044A136010BDC4470020FC46002003
:100F500008870010E447002030B5002516E0013274
:100F6000052A0FDC1A4B9C5C1A4B69004919480092
:100F70001B189B5C9C420DD1002C0DD0002BEED198
:100F8000012300E00123002B08D10135232D12DCC1
:100F90000022E5E70023F6E70123F4E70E4B1B6888
:100FA000C52B07DC0D4A13680D49485D0D49C8542F
:100FB0000133136030BD084B1B68C52BFADC0749B1
:100FC0000B68084A3F20D05401330B60F2E7C0465B
:100FD000E84700202C3F0020E4470020C4470020C1
:100FE00004400020FC46002010B5084B1B68122B63
:100FF00003DD202004F0EAF810BD054A0021D15499
:10100000024B1960FFF7A8FFF3E7C046E447002052
:10101000E847002010B582B004F048F90A490B4CAB
:10102000200004F007FB020001230193084B00930A
:101030001C2300212000FFF7DDF9FFF745FA00F03F
:101040000FF8002002B010BD1087001000002050E3
:1010500000504349000000000000000000000000B4
:1010600000F006F800F010F8FFF770FB30BFFDE766
:1010700000B51520FFF7F6FE15200021FFF7F6FE5C
:101080001520FFF7FFFE00BD00B5354A1168742238
:101090000A4434481060324A116840220A443248F7
:1010A00010602F4A116844220A4430481060304AC8
:1010B00030481060304A106000BD00B52F4A1168FA
:1010C0002F4A0A40002A19D12E4A0A40002A00D18C
:1010D0001FE02D4A2B4911602C4A11682C4A1068D8
:1010E000091A2C4A914200D902E0FFF7D1FE02E032
:1010F000FFF7F0FEFFE700F00FF80AE0224A204970
:101100001160254A00211160204A1168204A1160AF
:10111000FFE7FFF7D9F900BD00B51C4A11681F4869
:1011200008441F4A1060194A11681E4808441E4AA4
:101130001060194A0321116000BD00B51B4A1C490B
:101140001160FFF751FFFFF7BFF900BD00B5174A67
:1011500018491160FFF7E0FEFFF7B6F900BDFEE7A2
:1011600008ED00E0BB1000103B1100104D11001005
:1011700080E200E00320000000E100E0284101409F
:101180000000400000008000F84001400C40054095
:1011900030400020000003003840054000001800E7
:1011A0001040054000003000144005403440054028
:1011B000010000000200000010B58300084A9446B8
:1011C00063441A68402462408034144080225201F3
:1011D00013431C60C000034B9C466044416010BD3B
:1011E00004C0014000400140072303409B00C008A9
:1011F00099403C308000014BC15070470040014095
:10120000F8B507000C0016001D00FFF7EDFFFB0806
:101210009B00ED180720384080008440002E04D049
:1012200080239B012B431C60F8BDC0239B012B43F3
:101230001C60F9E710B5D0231B061B68002B03D0F8
:10124000024BFFF7DDFF10BD014BFAE730410140D3
:101250000041014010B501238340D0221206936261
:1012600093610521FFF7A8FF10BD0000034B1B6829
:1012700002201840431E9841C0B2704700C006408B
:10128000EFF3108072B6034B1B68002BFBD0BFF34B
:101290005F8F70472C0100D0BFF35F8F024B00229D
:1012A0001A6080F3108870472C0100D0F8B5060052
:1012B0000C001500FFF7E4FFE308F718F15C0722C4
:1012C0002240012393400B4205D1DBB20B433B701C
:1012D000FFF7E2FFF8BD2100280001F05BFD0000F0
:1012E000002307E0054A9A189200BFF35F8F0021A0
:1012F000116001331F2BF5D97047C0464000003400
:10130000054A1078431CDBB21370172B02D9130067
:1013100010221A707047C04634400020074B9B686B
:10132000103080001950BFF35F8FBFF35F8F044B05
:101330000021196082F310887047C04600ED00E07C
:10134000240100D010B50388DA0A1C2A05D15B05F8
:101350005B1502335B00C01810BD034B034A044801
:10136000B12101F037FCC04620870010BC88001076
:101370003887001010B5091A0B1F0A4A88180A4A44
:10138000904208D8C90706D45B105B055B0D07487F
:10139000184380B210BD064B064A0748A32101F04E
:1013A00019FCC046FC070000FE0F000000E0FFFF34
:1013B00078870010B08800103887001010B5091A1F
:1013C00004394A08090B08D14905490D064B0B435E
:1013D0000380064B1343438010BD054B054A064866
:1013E000AB2101F0F7FBC04600F0FFFF00F8FFFF64
:1013F000A8870010848800103887001001238340DC
:10140000034A10681840431E9841C0B27047C04656
:1014100000E100E0002904D0034B1860034B186082
:101420007047034B1860FBE780E200E000E100E05A
:1014300080E100E010B5012383401800FFF7EAFFC8
:1014400010BD0000024B9B6810308000C0587047F0
:1014500000ED00E070B504000D00EFF3108672B6E9
:101460000C4B1B68002BFBD0BFF35F8F2000FFF7F6
:10147000E9FF094B984201D0A84205D1320029006A
:101480002000FFF74BFF70BD044B054A054886213D
:1014900001F0A0FB240100D0CD010010B88700109E
:1014A000CC88001038870010F0B5CE46474680B58E
:1014B00083B006000D00EFF3108872B64F4B1B6827
:1014C000002BFBD0BFF35F8F4D4B9A683400103474
:1014D000A300D7584B4B9F4207D0AF4200D18BE0BF
:1014E0000197494BFB1A2F2B09D94246390030008E
:1014F000FFF714FF03B0C0BCB946B046F0BD3000E2
:10150000FFF77CFF814600213000FFF793FFBFF318
:101510005F8FEFF30581002901D08C4211D10123A7
:10152000019C9C430020A368AB4212D00622A25625
:10153000002A0DDB53009B189B00334A2000D4186F
:10154000F1E7324B324A36213248FF3101F042FB9B
:101550002000AB4249D106256557002D2BDB2A4BD5
:101560006A00521992009B189A68A260DA79E271B7
:101570009B795BB2A371002B0FDA2748A080224B26
:101580006A00521992009B18244A117899711570BB
:1015900049463000FFF74EFFA7E76800401980007A
:1015A000194BC0180430FFF7CDFE0100231D1800B1
:1015B000FFF7E0FEE2E7002912D100280ED0FF235A
:1015C0008371174B838015490B78A3710E4A154B15
:1015D000A41A644163431B0D0B70D9E7094FF2E76E
:1015E0001149201DFFF7EAFED2E7104B084A6A2195
:1015F0000848FF3101F0EEFA024F76E7240100D0EF
:1016000000ED00E0CD01001038400020F087001010
:101610009C8800103887001001BD0000354A00206A
:1016200001BDFFFFAAAA000072400020248800101C
:1016300070B5012202432E4BD31A2F2B28D8EFF37B
:101640000583002B2BD0EFF3108C72B62949096863
:101650000029FBD0BFF35F8F254C274905002D1BC8
:101660006D416943090D4CB2244989689B00C958F2
:1016700091421BD00021032932D81D4B4A00521839
:1016800092009B189B795BB2A3421FD00131F2E715
:101690001B4B1C4AC7211C48490001F09BFA1B4BFD
:1016A000184A92211848FF3101F094FA134A9268BF
:1016B0001749D150174B1A7882711C70BFF35F8F96
:1016C0000C4B00221A608CF3108870BD084B4A0046
:1016D0005518AD005D19FF26AE710F4AAA80E9E7E3
:1016E0000E4B084AD1210848490001F073FAC04660
:1016F00038400020240100D0AAAA000000ED00E03C
:101700002C8800106888001038870010548800105A
:10171000CD010010354A002001BDFFFF6088001098
:101720000022044B02E0044902C30132072AFAD91D
:101730007047C04600E400E080808080024B9C46F9
:1017400061448900016070474000003410B5040016
:10175000FFF7D6FD01002000FFF7F0FFFF23237104
:10176000BFF35F8F10BD10B50400FFF7C9FD010086
:101770002000FFF7E3FFFF23237100236371BFF312
:101780005F8F10BD084B5B6A994209D8064A926A7E
:10179000824207D2994201D0012002E0002000E0FD
:1017A000002070470120FCE70040054010B50029EB
:1017B0000AD003681B7B8B4206D38068054B9C468E
:1017C00061440901401810BD034B044A04483C2100
:1017D00001F000FAFFFFFF0F9C890010D88C001069
:1017E000C0890010F8B504001700FFF7DFFF066896
:1017F000456839002000FFF7D9FF026843680120DF
:10180000AB4201D802D00020C0B2F8BDB242FBD832
:10181000F9E7000010B5002B02DB0260436010BD49
:10182000024B034A03483F2101F0D4F9FC89001020
:10183000A48C0010188A001010B582B0040004981F
:10184000059912184B41002B09DB6846FFF7E2FFB0
:10185000009A019B22606360200002B010BD01224B
:101860005242014BF1E7C046FFFFFF7F10B5002950
:1018700008D0037B8B4205D300684B005B18033B09
:10188000C01810BD024B034A0348682101F0A2F9B9
:10189000608A0010808C00107C8A001010B5437B99
:1018A0008B4201D1012010BDFFF7E0FF8378002BB0
:1018B00001D10020F7E70120F5E770B50400857B32
:1018C000002D01D1280070BD2900FFF7CFFF43781C
:1018D000A373002B00D1E373002383704370037064
:1018E000F0E70000F8B506000C001500FFF7BEFF9A
:1018F0000700002C0DD0002D11D0AC4215D02900CE
:101900003000FFF7B3FF84703B78002B13D13D709C
:10191000F8BD0A4B0A4A0B486F2101F05BF90A4BEC
:10192000074A0848702101F055F9084B044A054858
:10193000712101F04FF943703D70E9E7C88A00104A
:101940005C8C00107C8A0010D48A0010E08A0010A1
:1019500070B506000D001400002914D0002A14D020
:10196000436880689847002806D02200290030008C
:10197000FFF7B8FF280007E02A0021003000FFF73A
:10198000B1FF200000E0100070BD0800FCE700007F
:1019900070B504000D1E0CD0FFF768FF00238370A4
:1019A00043700370617B2A002000FFF7D1FF607352
:1019B00070BD034B034A0448A52101F00BF9C04652
:1019C000F88A0010708C00107C8A001070B504003A
:1019D0000D1E0FD0FFF762FF00280BD1E17B00291D
:1019E0000ED1A37B002B03D1E37B002B0DD1A5737C
:1019F000E57370BD084B094A0948F62101F0EAF881
:101A00002000FFF733FF4570EBE7064B034A04481D
:101A1000FB2101F0DFF8C046FC8A00104C8C00105E
:101A20007C8A0010208B001010B5002907D00368B5
:101A30001B7B8B4203D3C0680139401810BD034B98
:101A4000034A0448412101F0C5F8C0469C890010B2
:101A5000388C0010C089001070B505000C0008001B
:101A600000F046FC0949200000F086FBFFF748FC27
:101A7000074B9C466044800068602C75D0231B0691
:101A80001B786B75034BA400E55070BD811B0010E3
:101A900040000034FC4700200A4B1A68EFF3108125
:101AA00072B61368002BFCD0BFF35F8F054B1B6829
:101AB000BFF35F8F00221A6081F3108840BF0020BF
:101AC00000217047184A002010B582B0040000F0D1
:101AD00015FB02000B006846FFF79CFE009A019B75
:101AE00022606360200002B010BD0000F0B583B03A
:101AF000070001921D000AAB1C780BAB1E78002C6E
:101B00000BD000682100FFF7C9FE002809D0194B4F
:101B1000194A1A48672101F05DF80068FFF7CDFE09
:101B20000400002C02D1200003B0F0BD21003800D9
:101B3000FFF73CFE019B03604560089B8360099BA7
:101B4000C36038682100FFF723FFA042EBD1387D46
:101B5000019A2B0000F058FB051E01D0002E04D086
:101B60000C9B002BDFD01D70DDE73868210000F0F2
:101B700005FDF5E7348B00108C8C0010C089001037
:101B8000F0B5DE4657464E464546E0B58FB00B9061
:101B90000021794B8200D458894683E02900200037
:101BA000FFF704FE804602684368921BBB41002B8E
:101BB00009DD43461A685B680B9800F025FB00239B
:101BC000984600268AE0002B01D1002AF1D100219D
:101BD000584600F0C9FC0700A84215D143461A68D0
:101BE0005B680892099343469E68DB689846002E1E
:101BF00010D029002000FFF717FF037899461B0239
:101C00001F432761002069E05C4B5D4A5D488E21DF
:101C100000F0E0FF5C4B5A4A5A48922100F0DAFF8C
:101C20002369002B00D177E0BB4219D106980799B0
:101C3000002342428B4100920193089A099B0CA811
:101C4000FFF7FAFD0C9A0D9B0021049101310391DD
:101C500002954146019100962000FFF747FF16E0EC
:101C60004A4B474A4748A12100F0B4FF069A079B18
:101C7000002B01D1002A52D120682900FFF7A6FECF
:101C800029002000FFF7D0FE037801330370002302
:101C900023616268BFF35F8F13608AF310880120AD
:101CA000002861D00CA8FFF70FFF0C9E0D9F0022AB
:101CB0000023089209936268EFF3108A72B61368E2
:101CC000002BFCD0BFF35F8F23689B465D7B002D0C
:101CD00000D063E700239846002600206368BFF326
:101CE0005F8F00221A608AF31088002ED8D04B46EE
:101CF0001F022F4341463800B047069007916268A3
:101D0000EFF3108A72B61368002BFCD0BFF35F8F1D
:101D1000079B002B00DA83E7079B002BA6DD2369D6
:101D2000002BA9D0BB4219D10CA8FFF7CDFE0C9A0D
:101D30000D9B06980799009001910CA8FFF77CFD78
:101D40000C9A0D9B002104910131039102954146AB
:101D5000019100962000FFF7C9FE98E70B4B084A57
:101D60000848A42100F036FF0FB0F0BCBB46B246D5
:101D7000A946A046F0BDC046FC4700205C8B001081
:101D8000BC8C0010C0890010748B0010808B001078
:101D900010B50C4B5B68002B04D00B480A21FFF7F1
:101DA000CDFC10BD074C094A20682300102100F02B
:101DB00046FB032000F096F903212000FFF74CFEBC
:101DC000EBE7C04680400020184A0020E5170010CD
:101DD00010B5064B5B68002B01D0044810BD044BC6
:101DE000044A05485E2100F0F5FEC0468040002010
:101DF000BC8B0010208C0010C0890010F0B5DE46AE
:101E000057464E464546E0B58DB0060090461F0049
:101E1000169B9A46179B994618AB1B780793272366
:101E200002AA9446634400221A7021E001003000A7
:101E3000FFF7FAFD00783CE00698002B5CD0079B8A
:101E4000002B59D04946D04704000D0003000B4336
:101E500059D0002940DB08A8FFF736FE089A099BF5
:101E60000094019508A8FFF7E7FC089B9846099F96
:101E70007268EFF3108B72B6136859424B41D9B2B6
:101E80000691002BF8D1BFF35F8F273302AA944647
:101E9000634404930023039302934B4601935346F8
:101EA000009342463B003000FFF720FE0400051E71
:101EB000BCD17368BFF35F8F002119608BF310886A
:101EC000002D17D0272302AA944663441B78002BC9
:101ED000B2D100022043B0E700236242AB4100923E
:101EE000019342463B0008A8FFF7A6FC089B9846D2
:101EF000099FBDE7012040420DB0F0BCBB46B24691
:101F0000A946A046F0BD0698F6E7F0B5C64600B56E
:101F100084B00500884616001F000AAB1C78FFF746
:101F200057FF0294019700962A004346FFF766FF89
:101F300004B080BCB846F0BDF0B5C64600B505009B
:101F40000C1E42D04268EFF3108772B61368002B64
:101F5000FCD0BFF35F8FE6B22B68984631001800C3
:101F6000FFF79CFC00282AD02B69A34213D0240A37
:101F7000E4B231002800FFF757FD0378A34211D0E7
:101F800000206B68BFF35F8F00221A6087F3108810
:101F900080BCB846F0BD0E4B0E4A2C210E48FF31D6
:101FA00000F018FE3100404600F0E8FA0028E8D1C1
:101FB0000A4B084A99210848490000F00BFE2B699A
:101FC000A342DED100232B61DBE70020E0E7C0461F
:101FD000E08B0010088C0010C0890010048C0010E9
:101FE00010B50400FFF7F4FE2100FFF7A5FF10BDB8
:101FF00030B583B005000C00EFF30583002B0FD143
:102000000B4A00230093FFF780FF00280BDD20BF61
:10201000FFF7E6FF28002100FFF7B4FB03B030BD57
:10202000FFF7B0FBFAE728002100FFF7ABFBF5E76D
:10203000991A001010B5002B02DB0260436010BD3E
:10204000024B034A03483F2100F0C4FDFC89001005
:102050008C8D0010188A001070B5EFF305801038D1
:10206000EFF3108C72B6194B1B68002BFBD0BFF33B
:102070005F8F01221300834015494B6315490B60A4
:10208000154909780C00C440224213D0104A546A02
:10209000124A8500AA58944205D3114AAA580E4CF8
:1020A0009943217007E00A4A031D9B0099589950F3
:1020B000002200E00022BFF35F8F044B0021196073
:1020C0008CF31088002A00D0904770BD280100D002
:1020D000004005403C700540364A00201C4A002064
:1020E0006846002010B50100024A034B1800FFF7B4
:1020F000DDF810BDE48C0010344A0020044B5B6A0C
:10210000034A906A1900536A9942F9D17047C04650
:1021100000400540084B5B6A01E0074B5B6A8B425D
:10212000FBD301E0044B5B6A8B4203D1024B9B6AF9
:102130008342F7D37047C04600400540F0B583B0F6
:1021400004000D00FFF7DAFF06000F0022002B004D
:1021500092197B41994202D804D1904202D90122BE
:102160005242D3176846FFF765FF00980199FFF7C1
:10217000D1FF03B0F0BD000070B504000E00EFF316
:10218000108572B61B4B1B68002BFBD0BFF35F8F13
:10219000002E1CD02000FFF755F9174B83420BD0BF
:1021A00019002000FFF756F901212000FFF742F93E
:1021B0000123A340114A1360114BA400E650BFF362
:1021C0005F8F0C4B00221A6085F3108870BD0C4B9A
:1021D000A2000021D1500122A2400A490B7893436A
:1021E0000B7005492000FFF75FF900212000FFF781
:1021F00021F9E4E7280100D059200010386005409B
:1022000068460020364A0020F0B5DE4600B584B0AE
:102210000400150001921E000293FFF76FFF039563
:102220008E4202D84ED185424CD9EFF3108B72B654
:10223000274B1B68002BFBD0BFF35F8F254A177815
:102240000125A540EBB23B431370234B5D63221D78
:1022500092000199D150214AA100029888501B6A2E
:102260002B4212D11C4B1B6C2B4208D00020BFF319
:102270005F8F174B00221A608BF3108823E0184BF6
:10228000184A1948C52100F0A5FCFFF737FF8E4218
:1022900014D802D1039B834210D80E4B1B78BB424B
:1022A0000ED00D4B1D625D631F222240012393401F
:1022B0000E4A1360074B1F700120D8E70020D6E7B5
:1022C0000120D4E7012004B080BCBB46F0BDC0466D
:1022D000280100D0364A0020004005401C4A00205A
:1022E000088D0010708D00102C8D001080E200E031
:1022F000EFF3108C72B60B4B1B68002BFBD0BFF3B7
:102300005F8F01238340084A136208490A789A4381
:102310000A70BFF35F8F034B00221A608CF31088A2
:102320007047C046280100D000400540364A0020D2
:1023300010B5002908D0037B8B4205D300684B0001
:102340005B18033BC01810BD024B034A03486821C9
:1023500000F040FC608A0010948E00107C8A00100F
:10236000F8B506000C001500FFF7E2FF0700002C8F
:102370000DD0002D11D0AC4215D029003000FFF750
:10238000D7FF84703B78002B13D13D70F8BD0A4B0A
:102390000A4A0B486F2100F01DFC0A4B074A084807
:1023A000702100F017FC084B044A0548712100F029
:1023B00011FC43703D70E9E7C88A0010808E001060
:1023C0007C8A0010D48A0010E08A001070B50600E4
:1023D0000D001400002914D0002A14D0436880682E
:1023E0009847002806D0220029003000FFF7B8FFE8
:1023F000280007E02A0021003000FFF7B1FF20008D
:1024000000E0100070BD0800FCE770B50500002377
:10241000437301338373037BC373012406E02100FC
:102420002800FFF785FF0134E4B24470297BA14204
:10243000F5D82800FFF77CFF0023437070BD10B56E
:10244000017342608360FFF7E0FF10BDF0B5C64640
:1024500000B505000C1E03D1200080BCB846F0BDBD
:10246000FFF766FF4678002EF6D031002800FFF710
:102470005FFF477800239846437021002800FFF74C
:1024800057FF43464370320021002800FFF79EFFAC
:10249000040039002800FFF7D9FF020021002800BE
:1024A000FFF794FF0400D7E7F0B5C64600B5040077
:1024B0000D001700002927D0FFF73AFF4378002BC3
:1024C00028D18378002B2BD101782000FFF7BEFFA5
:1024D00006008046002F0AD0E17B002926D1A37B8D
:1024E000002B03D1E37B002B25D1A573E573434675
:1024F000002B26D129002000FFF71AFF002343708C
:10250000300080BCB846F0BD114B124A1248382149
:1025100000F060FB114B0F4A0F483A2100F05AFBC4
:102520000F4B0C4A0C483B2100F054FB2000FFF7F6
:10253000FFFE4570D3E70B4B064A0748422100F0E7
:1025400049FB31002000FFF7F3FE00238370D1E741
:10255000A48D00106C8E0010AC8D0010E88D001062
:10256000108E0010208B001070B504000A00457B0F
:102570002900FFF799FF6073280070BD70B5060051
:102580000C1E40D0437B8B4207D0FFF7D1FE0500E5
:102590008178002906D1002036E00121FFF7E4FF11
:1025A000012031E03000FFF7C3FE0178A1420DD0D9
:1025B0003000FFF7BDFE4178A1420AD00029F7D1D3
:1025C000124B134A13486B3100F004FB6B78037015
:1025D00001E06B7843700023AB706B700122210027
:1025E0003000FFF761FF0200717B814205D03000AF
:1025F000FFF7ECFE7073012006E0074B044A054824
:10260000712100F0E7FA002070BDC046608800101C
:10261000548E0010AC8D0010348E001070B5046B19
:10262000E30701D4200070BD02003032C0239B01BB
:1026300013430A4A1A60456A836AAD01ED18AD0278
:10264000062000F0BDF9064901F0EEFC010028006B
:1026500001F0EAFC0021FFF771FDE3E70103000050
:102660004E0E000070B504000E001500FFF7D6FFF7
:1026700022002C32E36A5E40354080235B01134325
:102680001D60206370BD000070B505000C000620C1
:1026900000F096F9C000210001F0C6FCC60908D080
:1026A0000E4B9E4216D87F230340013334005E0850
:1026B00000E001246C62AE62002200212800FFF7D6
:1026C000D1FF062000F07CF98000A101891901F0FA
:1026D000ABFC70BD0026024CECE7C046FEFF0000DC
:1026E000FFFF000010B505394901013AD20011433E
:1026F000002B09D002220A43012B07D000211143ED
:102700006E22FFF7AFFF10BD0022F4E70421F6E7C9
:10271000002909D00A22064B9C4660444342584196
:10272000044B4000C252704780225200F3E7C0467B
:102730000080FCBF2C4A002070B505000C0006206C
:1027400000F03EF9061E27D0164B9D4226D080226F
:10275000D203154B1A60154B1A60154B9B6811007C
:102760009943FAD100212800FFF7D2FF2100280069
:10277000FFF78AFF06000023012208212800FFF747
:10278000B1FF2A002C3280239B01134310221A60D0
:10279000084B2B630323AB64300070BD802212040E
:1027A000D7E7C0460080034000E0004000F0004052
:1027B00000C0004001030000F8B5DE4657464E4613
:1027C0004546E0B506000F0015000A9A934250D323
:1027D0001A0E92461B0298460A9A0023404651461A
:1027E00001F060FC81467400A419A4002F4B9C46A4
:1027F00064446368834200D26060331FDBB29B464F
:10280000012B3CD9C0239B012343802212011A6073
:10281000274BB200D158002907D0586901F004FCB9
:10282000013043001B18033BFDD26D0123685D405E
:10283000E0222A4080235B0123431A605A46012A82
:1028400028D980239B012343802212011A604B4622
:1028500063604A4600234046514601F023FC144B76
:10286000B60098510120F0BCBB46B246A946A0462E
:10287000F8BD104B104A1148332100F0ABF9012F7D
:10288000C0D1C0239B01234303221A60A368DB0746
:10289000FCD5CAE72168794003220A401A60A36880
:1028A0000125BD401D42FAD0CBE7C0460080004064
:1028B00084460020A08E0010FC8E0010B48E001004
:1028C00030B583B00C2000F011F9FEF7CFFC0028E2
:1028D0000DD0002304E02E4A99002E488850013381
:1028E000092BF8D92A4B2C4A5A6203B030BD2B4B26
:1028F00000229A6700F054F9294B01221A60274BF5
:102900005B6C012BFBD1274B03221A60234B9B6B83
:10291000012BFBD1013300930433234A01212348C7
:1029200000F054F805230093214A0121214800F0CA
:102930004DF8214B0093002202210420FFF73CFFB9
:102940001E4D00952B00002201210520FFF734FFCA
:10295000104C00942300002200210720FFF72CFFD9
:1029600000942300002200210820FFF725FF0A4BD6
:1029700000932300002200210920FFF71DFF00958E
:102980002B00002200210620FFF716FFADE7C0460E
:1029900084460020006CDC021BB700000080004071
:1029A0003CB0004030B00040002F68590080024029
:1029B000008C864700C00240001BB70040597307D7
:1029C000014B8000C058704784460020F0B5C646D1
:1029D00000B504000E0017001D00374801F024FB6D
:1029E0008046364BFA18364B9A4239D801003800E7
:1029F00001F01AFB0200103A98235B009A4235D886
:102A00006B1E062B38D8069B013B062B34D83F099A
:102A1000474537D32D04069B1B031D432368002B1A
:102A200036DB284B9C4244D080235B01264A13604E
:102A3000264A1360264A926819009143FAD126600B
:102A4000A060221DC0239B01134321221A6022682B
:102A5000002AFCDAE56008221A6080BCB846F0BDA6
:102A60001C4B1D4A1D48112100F0B4F81C4B1A4A9A
:102A70001A48192100F0AEF81A4B174A17481C21C2
:102A800000F0A8F8184B144A1448232100F0A2F8CB
:102A900022683F231340B342C3D1A3681B051B0D1B
:102AA0008342BED1E368EE22D2021340AB42B8D1DA
:102AB000D3E780239B01B9E7001BB70080E84BD325
:102AC00080F8A93200C0024000E0004000F0004061
:102AD00000C000400C8F0010309000106C8F001070
:102AE000AC8F0010C88F00101490001080239B0042
:102AF0000343014AD362704700800540024B1A68C5
:102B0000024B5A607047C046DC47002000800540F9
:102B100010B5174B8022D2051A60164B164A1A6060
:102B200000290AD0154BE022D2041A60002809D1EE
:102B3000124B802212061A6010BD0D4BE022D20407
:102B40001A60F3E743011B1A9B00181800010C4B95
:102B5000186080235B04984202D3094B094A1A602B
:102B6000FFF7CCFF054B8022D2051A60E4E7C04690
:102B700000B0054008200140FCFF010000A0054016
:102B8000DC470020FFFFFF0010B5034B034ADA616A
:102B9000FFF7BEFF10BDC046008005402131B76A77
:102BA000064BAA2212011A602F22DA60044B054A52
:102BB0001A60024B5B68002BFBDA70470040024052
:102BC0000060024000B0FA0000BEFDE710B5FFF75C
:102BD000FBFF000030B583B00D001900002A0BD0B8
:102BE000074B084C019200932B000200200002F0DA
:102BF00051FB0120FFF7E8FF034B1A00F1E7C04645
:102C00003C9000104C9000102086001070B52B4BAB
:102C10002B4A1A602B4B2C4A1A602C4B9A682A4B71
:102C20009343FAD12A4C01E008CC9847294B9C42A7
:102C3000FAD3FFF745FE234B274A1A60234B9B68C4
:102C4000DB43DB01FAD1254B40229A675A671A67AA
:102C5000DA66234C09E0234B234A24488721FFF7F7
:102C6000B9FF2000FEF772FD0834214B9C4209D2C7
:102C70002368002BF5D0012BEDD12000FEF773FD6A
:102C80000834F2E71B4DA9681B4CC022200002F05B
:102C900063F9AC60EFF30583002B00D000BEFEF7B4
:102CA0001FFBFEF73DFDFFF773F8144C01E008CC65
:102CB0009847134B9C42FAD370BDC04600E00040D9
:102CC000BFCDFBFE00F00040FE7F3C0000C0004096
:102CD0002045002030450020FFFFFF0100F00140AB
:102CE000184500207C900010089100109C90001066
:102CF0002045002000ED00E00000002030450020CD
:102D00003445002010B5002B02DB0260436010BD8B
:102D1000024B034A03483F21FFF75CFFFC89001088
:102D2000F0900010188A001010B582B00400FFF770
:102D3000E5F902000B006846FFF7E4FF009A019BEB
:102D400022606360200002B010BD0000D0B582B0E8
:102D5000041E18D06846FFF7E7FF009E019F0B4B4B
:102D60001A685B68B61A9F41094A0023300039008F
:102D700001F080F920606160054A002330003900CD
:102D800001F078F9A260002002B0D0BD38460020E2
:102D900040420F000FB400B583B0084802F04AFA71
:102DA000049B002B07D005A90191180002F052FAEC
:102DB000034802F03FFA0120FFF706FFE090001001
:102DC0008C860010704710B5002802D00B68496847
:102DD000984710BD0100002007E083001B185B002E
:102DE000501C08601078C01830380A681378303BDF
:102DF000DBB2092BF1D97047F0B5DE4657464E4697
:102E00004546E0B583B093461F000C9B9A460D9C47
:102E10000E9B99460F9B9B0703D0B8460F000600F8
:102E200022E00192A34688464E46B9460700B442C6
:102E300007D2551C4B4641462020B84701342A0092
:102E4000F5E73D004F465C46019B9B46B146464632
:102E5000B84637002E0007E0013C551C5346185D6C
:102E600043463900B0472A00002CF5D135003E001A
:102E700047460F9B9B0707D4100003B0F0BCBB462E
:102E8000B246A946A046F0BDB0464E46B9462F0010
:102E90005D46531BB342EFD2541C4B4641462020A3
:102EA000B8472200F5E7F0B5CE46474680B585B075
:102EB000944698460C9D0D9C0EAB1B789946109A33
:102EC000119B129EB7071CD4002B0CD0F7070AD514
:102ED0004F46002F02D10C37374204D0013B02E0AD
:102EE00030272F550134944201D21F2CF8D9F7070F
:102EF00007D59C4205D21F2C03D830272F5501340B
:102F0000F5E7F70612D5770505D4002C03D09442D7
:102F100021D09C421FD00F9A102A32D00F9A022A39
:102F200037D01F2C0AD830222A5501341F2C05D83F
:102F30004A46002A33D02D222A55013403960293A3
:102F40000194009543466246FFF756FF05B0C0BCAA
:102F5000B946B046F0BD621E012C10D00F9F102F55
:102F60000BD014000F9A102AD8D1B206D6D51F2C38
:102F7000D4D858222A550134D3E7023CCBE71400B9
:102F8000C9E7B206EED41F2CECD878222A550134BA
:102F9000C7E71F2CD2D860322A550134C1E7720727
:102FA00003D52B222A550134C8E73207C6D5202283
:102FB0002A550134C2E7F0B5DE4657464E4645462F
:102FC000E0B593B081468A46089209931CAB10CBBA
:102FD0001B789B461E9D219B9846002C03D11023F5
:102FE00042469A4390468023DB0046461E404246B6
:102FF0001A4212D0002C22D000260EE03033D9B273
:10300000771C0AAB99552900200001F00DF8AC425D
:1030100016D31F2F14D83E0004002900200001F011
:1030200003F8CBB2092BE9D94246920605D54121D6
:10303000C918C9B20A39C9B2E2E76121F8E7270025
:1030400043460693209B05931F9B049303955B4681
:10305000029301970AAB0093099B089A5146484690
:10306000FFF721FF13B0F0BCBB46B246A946A0460D
:10307000F0BDF0B5DE4657464E464546E0B597B042
:103080000A900B910C929A46209B9946219F22AA66
:1030900013789B46249B0993259C289B98464A4677
:1030A0003A4302D11032934398468022D2004546DB
:1030B0001540434613420AD04A463A4341D00025C0
:1030C0002E0053460D934D46099B9A461BE02E0059
:1030D00053460D934D46099B9A4614E03033DAB2BD
:1030E000731C99460EAB9A555246230028003900AE
:1030F00000F0D8FFBC4226D819D04B461F2B1CD855
:103100004E4605000F00524623002800390000F00B
:10311000C9FFD3B2092BE1D94246920605D5412217
:10312000D218D2B20A3AD2B2DAE76122F8E7AA4557
:10313000E3D94E460D9B9A4608E04E460D9B9A46B3
:1031400004E0002602E04E460D9B9A464346069355
:10315000279B0593269B0493099B03935B4602934D
:1031600001960EAB009353460C9A0B990A98FFF701
:103170009AFE17B0F0BCBB46B246A946A046F0BDC9
:10318000F0B5DE4657464E464546E0B591B080461E
:1031900089460C929A461A9C1B9D22002B00200007
:1031A000290001F00AFA002800D0ECE00122524286
:1031B000D44B2000290001F0FBF9002800D0E2E008
:1031C00001225242D04B2000290001F0DBF90028F7
:1031D00000D0D8E0002200232000290001F0D2F91D
:1031E000002800D0E4E0069407958023DB001E9AB7
:1031F0001A400D921E9A1A4201D106231C9306987A
:10320000079902000B000892099303000A00024389
:1032100000D1D9E0080D4005400DBC4EB4466044D5
:103220000A03120B1E00BA4B13431F0001F0D8F91A
:10323000B84AB94B01F063F9B84AB94B01F038F913
:10324000089009910022B74B3000390001F027F9AE
:10325000B54AB64B01F053F902000B0008980999E2
:1032600001F026F901F0D4F9834601F0B9F906001E
:103270000F00AF4AAF4B01F042F90022AE4B01F014
:1032800017F901F0C5F90890AC4AAD4B3000390090
:1032900001F035F906000F00089801F0A1F9A94ADC
:1032A000A94B01F02CF902000B003000390001F0AD
:1032B000F6F806000F0002000B0001F020F90A905A
:1032C0000B91089BA14A9446634400210022089177
:1032D00009921B0509930023089332003B0030003C
:1032E000390001F0E5F80E900F9132003B0000200C
:1032F0008021C90501F0D3F806000F000022944B8D
:103300000A980B9901F0DDF80022924B01F0D0F8F9
:1033100002000B000A980B9901F0D3F800228E4BA3
:1033200001F0C6F802000B000A980B9901F0C9F8E9
:1033300002000B003000390001F0BAF802000B0067
:103340000E980F9901F0BDF80022714B01F0B0F812
:10335000089A099B01F0D3F806000F000896099718
:10336000069A079B01F024F900282FD001235B4225
:103370009C46E3440022774B3000390001F0A1F86D
:103380000890099122E01E9B04931D9B03931C9BB4
:1033900002930094019553460C9A4946404600F02A
:1033A000FFF811B0F0BCBB46B246A946A046F0BD3E
:1033B0000021002206910792069480231B069C465A
:1033C000AC446346079310E700239B465B46633398
:1033D000C62B20D804261E9B1B0528D5089A099BBE
:1033E000190011430FD05D4A5D4B0698079901F013
:1033F000D7F800287AD000225A4B0698079901F096
:10340000C1F8002872D01C9B5B4506DD5A469B1A0A
:10341000013B1C9303E00526DDE700231C9380237A
:10342000DB001E9A1A431E92002600239B461D9B1A
:103430009E4265D29F1B02231E9A1A400A921E9A30
:10344000134202D0002E00D000275B46002B07D08D
:10345000089A099B0698079901F033F8069007919E
:10346000002200232000290001F08CF8002800D061
:103470007CE03D4B1E9A1340049303971C9B0293E0
:10348000069B079C0093019453460C9A494640467C
:1034900000F086F8002E00D183E71E9B9B0671D5B5
:1034A0004525441C5346020049462800C0475A4659
:1034B000D317D2185A4005230593013E04960023E2
:1034C00003930A3302935B46DB0F0193009253464A
:1034D000220049464046FFF76EFD0A9B002B00D1B3
:1034E0005FE7020047460C9E1D9D53E01C9B002B8E
:1034F0009DD00D9B002B9AD01C9B013B1C9396E703
:10350000002798E7FFFFEF7FFFFFEFFF01FCFFFFC2
:103510000000F03FFB799F501344D33FB3C8608B4A
:10352000288AC63F0000F83F61436F63A787D23FF8
:1035300071A379094F930A400000E03F1655B5BBCF
:10354000B16B0240EF39FAFE422EE63FFF03000066
:1035500000002C4000002440000018402D431CEBCC
:10356000E2361A3F80842E41FFF7FFFF069C079D3D
:103570002200290080200006844661440B00069248
:10358000079376E765258CE7541C5346494620206F
:10359000B8472200931BAB42F6D3100001E7C046A8
:1035A000F0B5DE4657464E464546E0B595B0069026
:1035B000079193469946209F1E9A1F9B1000190061
:1035C00000F0FBFF002831D101225242BF4B1E9870
:1035D0001F9900F0D7FF002837D101225242BC4B7F
:1035E0001E981F9900F0E4FF00283DD10022B94B3E
:1035F0001E981F9900F0DCFF002850D10022B64B26
:103600001E981F9900F0BEFF002848D10022002319
:103610001E981F9900F0B6FF002850D1002398464D
:10362000229B5B0500D4B6E0002458E0229B039364
:10363000219B029303230193A84B00934B465A46C8
:1036400007990698FFF7D8FB0EE1229B0393219B75
:10365000029304230193A24B00934B465A460799C9
:103660000698FFF7C9FBFFE00423229A1A4022992B
:103670000B4210D09B4B002A0FD0042222990391B9
:1036800021990291019200934B465A460799069858
:10369000FFF7B2FBE8E0944BEDE70322EEE7229B55
:1036A0000493219B039302971E9B1F9C00930194FC
:1036B0004B465A4607990698FFF762FDD4E01E9ADA
:1036C0001F9B0020002100F0EAFE1E901F910123A5
:1036D0009846A5E70CAB30221A55013F01341F2C48
:1036E00001D8092FF6D81E981F9900F091FF050008
:1036F00000F076FF02000B001E981F9900F0CFFE2D
:103700007A4BFA009B181A685B680A920B9300F0D8
:10371000F6FE0890099100F09FFF060000F05CFFA4
:1037200002000B000898099900F0B9FE0890099171
:1037300000226F4B00F03CFF00282ED001363000F5
:1037400000F04AFF02000B000A980B9900F020FFDE
:10375000002801D001350026002F2CD1280000F0D0
:103760003FFF02000B001E981F9900F098FE060014
:103770000F0000225E4B00F005FF002846D100221A
:103780005B4B3000390000F013FF00283ED1EB07FF
:103790003CD501353AE0062746E70022544B08980D
:1037A000099900F0EFFE0028D6D1002E01D0F307D2
:1037B000D2D50136D0E7AA461F2C11D8013F0A21E5
:1037C000300000F031FC651C30310CAB19550A217A
:1037D000300000F029FC092E0ED906002C00EBE782
:1037E00055461F2C0CD87B1E002F09D00CAA302167
:1037F00011551F000134F4E72B0055461C00F0E77B
:103800001F2C03D80CAB2E221A5501341F2C10D8B4
:103810000A21280000F0E0FB661C30310CAB195582
:103820000A21280000F0D8FB051E01D03400EDE786
:1038300034000323229A1340012B1CD01F2C06D8DE
:103840004346002B32D00CAB2D221A550134229B5B
:103850000393219B029301940CAB00934B465A4671
:1038600007990698FFF7C8FA15B0F0BCBB46B246F8
:10387000A946A046F0BD219B002B13D04346002B48
:1038800002D10C3313420FD0219B013B219319002D
:1038900003E00CAB30221A5501348C42CED21F2CDF
:1038A000F7D9CBE72199F8E72199F6E7229B5B0747
:1038B00004D50CAB2B221A550134C8E7229B1B07F9
:1038C000C5D50CAB20221A550134C0E7FFFFEFFF2E
:1038D000FFFFEF7F65CDCD4165CDCDC124910010B7
:1038E000289100101891001020910010D092001023
:1038F0000000E03FF0B5DE4657464E464546E0B58F
:1039000093B08246884693461193002900D106E37E
:1039100000255646119B1878002800D102E325287F
:1039200009D06C1C5B462A004146B047119B01330D
:1039300011932500EEE701331193002720E00123C6
:103940001F4301321192012418E002231F43013268
:103950001192012412E004231F4301321192012429
:103960000CE008231F4301321192012406E01023CA
:103970001F4301321192012400E00024002C09D0E1
:10398000119A1378203BD9B21029F6D88B00C4497C
:10399000CB589F46119B1A781300303BDBB2092BA2
:1039A00010D92A2A13D00B94119B1A782E2A1ED0D4
:1039B000119A1378683BD9B2122959D88B00B949AA
:1039C000CB589F4611A8FFF705FA0B90ECE71C9B1C
:1039D0001A1D1C921B68002B04DB0B93119B0133F7
:1039E0001193E1E7022217435B420B93F6E7802233
:1039F000D20017435A1C11925A781300303BDBB2A5
:103A0000092B0BD92A2AD3D11C9B1A1D1C921C6886
:103A1000002C08DB119B01331193C9E711A8FFF7B4
:103A2000D9F90400C4E70024F4E780235B003B439A
:103A3000511C119151786C2901D01F0018E0C0234E
:103A40009B001F430232119212E080233B43511C22
:103A500011915178682901D01F0009E0C0231F434C
:103A60000232119204E080235B001F430132119265
:103A7000119B1878672816D8252826D30300253BE4
:103A8000DAB2422A21D89300874AD3589F4680232E
:103A90009B001F4301321192EAE780235B001F4322
:103AA00001321192E4E778280FD869280DD302007B
:103AB000693AD2B2012393407C4A13420FD11A06CD
:103AC00000D507E25B0500D594E16C1C5B462A003B
:103AD0004146B047119B0133119325001AE778281E
:103AE0000AD062283AD06F283BD058283CD0102307
:103AF0009F43063B9C4601E010239C46582836D045
:103B0000692803D0642801D00C2297437A0501D597
:103B10000122974369282DD064282BD0BA0500D5FF
:103B2000A2E0FA0500D5C3E07A0600D4D5E01C9ADD
:103B3000111D1C911168FF220A4005970B9B0493ED
:103B40000394634602930023019300925B462A008C
:103B500041463000FFF72FFA05002AE002239C4679
:103B6000CCE708239C46C9E710239C46C6E72022E1
:103B70001743C5E7BA0520D4FA0550D47A0666D5AE
:103B80001C9A111D1C911168FF220A40D0171118B0
:103B9000414005970B9B0493039463460293D20F15
:103BA000019200915B462A0041463000FFF703FA7C
:103BB0000500119B01331193ACE61C9A07320721D3
:103BC0008A43110008311C91116853689946DB172C
:103BD0000C930D930C9A0D9B100048400E904A4692
:103BE00053400F930E980F990C9A0D9B801A994190
:103BF0000E900F9108970B9B0793069463460493CE
:103C0000002305934B46DA0F0292009001915B4628
:103C10002A0041463000FFF72CFA0500C9E71C9A3C
:103C2000111D1C911268D0171118414005970B9B6C
:103C30000493039463460293D20F019200915B4672
:103C40002A0041463000FFF7B6F90500B1E73A0611
:103C500005D51C9A111D1C910023D25E96E71C9A73
:103C6000111D1C91126891E71C9A073207218A43A3
:103C7000110008311C9108970B9B0793069463462B
:103C800004930023059302935368126800920193F2
:103C90005B462A0041463000FFF7EBF9050088E754
:103CA0003091001074910010C091001041900000FC
:103CB0001C9A111D1C9105970B9B0493039463465A
:103CC000029300230193136800935B462A00414648
:103CD0003000FFF770F905006BE73A0606D51C9A2D
:103CE000111D1C9112681204120C26E71C9A111D5A
:103CF0001C91126821E7462819D01C9B0733072224
:103D000093431A0008321C9204970B9A0392029470
:103D10001A685B68009201935B462A0041463000B6
:103D2000FFF73EFC0500119B01331193F2E52023C0
:103D30001F43E2E7672801D0472802D180231B01F7
:103D40001F43452801D0472801D120231F431C9B36
:103D50000733072293431A0008321C9204970B9AE8
:103D6000039202941A685B68009201935B462A00F2
:103D700041463000FFF704FA0500119B013311930F
:103D8000C8E502231A003A4091463B421DD0012467
:103D90001C9B1A1D1C926F1C18785B462A0041461A
:103DA000B0474B46002B14D1119B013311933D00BA
:103DB000B0E5571C5B4641462020B04723003A003F
:103DC0005C1C9D42F5D81500E2E701232A000B9DFB
:103DD000F6E73A00B1460B9E06E0571C5B464146AB
:103DE0002020C8472C003A00651CA642F5D81700D1
:103DF0004E46D9E71C9B1A1D1C921B689A46002C44
:103E000025D101225242534601E001330A001978BC
:103E1000002902D0511E002AF7D152469B1A802257
:103E2000D200390011408946174202D0A34200D97E
:103E3000230002221100394010913A4209D02A0091
:103E4000250057469A4633004E46994621E0220007
:103E5000D9E72A004546A04606E0541C5B462900E7
:103E60002020B0473B0022005F1C0B999942F4D8F8
:103E70004446A8463B00250057469A4633004E4626
:103E8000994606E01D000137541C5B464146C84771
:103E900022003878002804D0002EF4D06B1E002DAC
:103EA000F0D1150053464E46109A002A03D1119BBB
:103EB000013311932EE50B9F2A0006E0551C5B464B
:103EC00041462020B04723002A005C1C9F42F5D8C1
:103ED0001500ECE721233B431C9A111D1C9112682D
:103EE000059308230493039408330293002301935A
:103EF00000925B462A0041463000FFF75CF805005F
:103F0000119B0133119305E56C1C5B462A00414669
:103F10002520B047119B013311932500FAE40B4B88
:103F20009A46F5E4B2465D450DD35B465A1E5B46A4
:103F300041460020D047280013B0F0BCBB46B24633
:103F4000A946A046F0BD2A00F1E7C046C52D0010E5
:103F500000B585B00290039101210448009313003D
:103F60004A4202A9FFF7C6FC05B000BDC72D0010EC
:103F700001480421014B1847B0400020A13F001028
:103F800010B5010018231B8814221088984710BD13
:103F900010B5010018231B8816221088984710BD01
:103FA000F0B5C64600B507000E000025012398466F
:103FB00000E00135B5420AD2AC003C192068FFF799
:103FC000DFFF20600028F4D100239846F1E7404647
:103FD00080BCB846F0BD0000124A936F9B0815D212
:103FE0009066D166002905D0FFE7FFE7FFE7516F34
:103FF000106F704704B580210906C2175140002890
:1040000000D0C84301F070FC002104BDF0B5146E6F
:10401000556E576F166FFFF7E3FF146655665767C7
:104020001667F0BD000000D0114A936F9B0813D2B1
:1040300010665166002905D0FFE7FFE7FFE7516FE3
:10404000106F704704B5002801D00020C04301F074
:104050004BFC002104BDC046F0B5146E556E576F81
:10406000166FFFF7E5FF1466556657671667F0BDD4
:10407000000000D094464A4A926F9208624601D2EC
:1040800028E0C046F0B5464E346E756E776F366FD9
:1040900000F020F89446424A146655665767166742
:1040A0006246F0BD94463E4A926F9208624601D243
:1040B00054E0C046F0B53A4E346E756E776F366F89
:1040C00000F04CF89446364A1466556657671667F2
:1040D0006246F0BD002B24DB11D000293EDA00B58A
:1040E000C943404200D1013100F038F8C943404291
:1040F00000D10131DB43524200D1013300BD002A1F
:10410000EBD1002801D1002905D00020C90FC90733
:1041100001D1C043410800B501F0DEFB00220023BD
:1041200000BD00B500290ADBDB43524200D1013358
:1041300000F014F8C943404200D1013100BDC94329
:10414000404200D10131DB43524200D1013300F043
:1041500005F8DB43524200D1013300BD002923D1D1
:10416000002B18D1002A0CD0BC460D4F38667A6659
:1041700000210023FFE7FFE7FFE77A6F386F67460C
:104180007047002801D00748010000B501F0A4FBEA
:104190000022002300BD02000B0000200021704718
:1041A000000000D0FFFFFFFF002B00D0BFE0130C8A
:1041B00028D1002AE7D080B4114F39667A66FFE72C
:1041C000FFE730B4040C7B6F396F1B0423433B665D
:1041D0007A66FFE7FFE7FFE7C04684B27B6F3D6F7B
:1041E0001B0423433B667A66FFE7FFE7C0460023D4
:1041F0002C042D0C7A6F386F00196941B0BC7047E0
:10420000000000D0F0B594460025140E01D1120232
:104210000835140F01D112010435940F01D1920019
:104220000235D40F01D152000135D40B0134254F92
:104230007C66254C3C660E0C93B2FFE7FFE7FFE778
:104240003C6F6643360C7703BE467343DF0B5B045B
:10425000C01AB941130C7343DB18C91ACE08664360
:10426000360CB64493B273431F0F1B01C01AB941F9
:10427000130C73431F0B1B05C01AB941860D8F0227
:104280003E436643360C092D24DB520A7243801AE2
:104290007703460A6643360C16235B1BDE40DF407D
:1042A000BF1964466643821B70460435063301001D
:1042B000D940A840C01900D30131A24206D2002340
:1042C000F0BD0000000000D0FFFFFFFF121B013017
:1042D000F3D3F1E709277F1BFE406446A2B2724385
:1042E000801A00D20139220C7243130C1204821A74
:1042F00099410B007046043513370100F940A8407E
:10430000801900D30131002B02D1A2420AD2F0BDA4
:10431000013000D30131121BFAD2013BF8D1A24285
:1043200000D2F0BD013000D30131121BF7E7F0B528
:104330001C0C00D080E00CB400251C0A04D11B0228
:10434000160E3343120208351C0B04D11B01160F45
:104350003343120104359C0B04D19B00960F334369
:1043600092000235DC0B02D192185B4101351C0032
:10437000971864410134464F7C66464C3C660E0CEF
:10438000FFE7FFE7FFE7C0463C6F6643360C770365
:10439000BE4697B27743C01B00D20139C01B00D282
:1043A00001399FB27743C91BC91B170C77437E04A1
:1043B000FF0B801BB941CE086643360C0C2D33DB56
:1043C000B644120B1F053A431B0B97B27743C01B31
:1043D00000D201399FB27743C91B170C77433E04C3
:1043E0003F0C801BB941860D8F023E43664329274F
:1043F0007F1BFE400C3D7746AF40BF1930BCA2B2D8
:10440000ABB272437343801A9941220C7243130C6E
:104410001204801A994102000B000137001BA941C8
:10442000F9D2781E0021F0BD0C277F1BFE40774695
:104430007F0BAF40FF19E0E700245D1C07D0144F4D
:104440007D663966FFE7FFE7FFE7FFE73C6F95B260
:104450009EB265436643401BB141150C1E0C65437B
:10446000664336042F0C3E432D04401BB141994254
:1044700004D202000B0020000021F0BD01D19042C7
:10448000F7D3801A994101349942F2D3F6E700003C
:10449000000000D0FFFFFFFF48404140484018B4F3
:1044A0001B4B5B68FC46019308BD04DF7747001097
:1044B00018B4174B1B68FC46019308BD00DF814709
:1044C00000109446134A926F920809D2624618B4BB
:1044D0000F4BDB68FC46019308BD0CDF394A001026
:1044E0000C4AF0B5146E556E576F166F6246FFF7A3
:1044F000EEFF084A1466556657671667F0BD18B494
:10450000034B9B68FC46019308BD08DFDD480010A3
:1045100014480020000000D0FFB5504042405040F9
:1045200059404B40594000E0FFB5154F4C00640D19
:1045300003D0BC4204D10C0314D80020090D090596
:104540005C00640D03D0BC4204D11C030AD80022D5
:104550001B0D1B0501264B4009D44B4003D58B4254
:1045600000D18242FFBD9942FCD19042FFBD0B4376
:10457000DB1803431343F5D0C9434918FFBD0000BE
:10458000FF07000000B5FFF7CFFF804100BDC04628
:1045900000B5FFF7C9FF01D9002000BD012000BD13
:1045A00000B5FFF7B9FF01D9002000BD012000BD13
:1045B00000B5FFF7B1FF804100BD012040054A0072
:1045C000121804D85A00121801D800207047012090
:1045D00070470020704700000021002805D1704777
:1045E000C1174840401AFAD0C90713B5064B1B68DB
:1045F00098470CBC441CA2401005120B0349091B30
:1046000009051943114310BD144900201F0400007F
:1046100010B54C00620D8023D218DB00D21A5B0566
:104620007E2A10DD9E3A13DACC1709034908194394
:104630005242D140640001341532202A05DAD040BC
:104640000843604310BD002010BD0846604310BD04
:10465000C80FC018013810BD18B4044B5B6AFC4683
:10466000019308BD24DFE94B00100000144800202E
:1046700070B513231C78012C12D0012C12DC214BB5
:10468000214A93642148FFF77BFC214B186070BDE1
:104690001C491D4A9800815001331F2BF8D9ECE7C3
:1046A0000023FAE71B48FFF773FC05001A48FFF7E1
:1046B0006FFC023803789B007F2B09DD12488022B3
:1046C000290000F049FC022C08D0022CDADCD6E7E5
:1046D000124B134A13483221FEF77CFA124B1A8808
:1046E000B5231B029A4209D1104B1A88104B9A42EB
:1046F00004D1104B1A88104B9A42E6D00020FEF7E6
:1047000049FBC0463D470010144800204C330000D0
:104710001449002053440000534600002093001029
:10472000C09300107493001054380000D838000073
:10473000494600009C3800005946000007B5604615
:10474000002800D100BE01880A0A0230DF2AFAD10F
:10475000C9B2820804D3028840880004104300E0F4
:104760000068024A5050039007BD00001448002022
:104770000FB403BC0CBCF0B50124E407634000E0B7
:10478000F0B50C0DCF0F661E3605891B640503D3EB
:10479000C943404200D30131640D03D0661CF60AC0
:1047A00007D0E41B00207F00791C89078912803C18
:1047B00024031D0DDF0F6E1E36059B1B6D0503D3F5
:1047C000DB43524200D301336D0D03D06E1CF60A59
:1047D00007D0ED1B00227F007B1C9B079B12803DB6
:1047E0002D032F1B661B58D4A446202E46DA2037F3
:1047F0001400BC401D00BD40F24033412A438018E4
:104800005941CB0F05D0C943C043002264425041F7
:10481000514162464D0D28D10D0D07D100281FD002
:10482000241940414941013A0D0DF9D0640006D3E5
:10483000013000D30131002C01D140084000013A81
:104840000BD4941CE40A04D112051144DB0719446B
:10485000F0BDD907204B194300E0D9070020F0BD77
:104860000029DDD1002CDBD1F0BD0132C6074008A4
:10487000CD0728434908002EE1D0D9E73C2E29DA9C
:10488000203E40371400BC4000D00124F2401443C5
:104890001A00BB401C43D317ACE7AC46202F08DA04
:1048A00020360400B4400D00B540F840394128439B
:1048B000A5E73C2F0CDA203F40360400B44000D07E
:1048C0000124F84004430800B1400C43C117EAE753
:1048D00010001900002494E70000F07FF0B50C0DE3
:1048E000661E3605891BE60A6405640D02D0651C48
:1048F000ED0A04D0002001210905803C2403A446D0
:104900001C0D671E3F05DB1BE70A6405640D02D022
:10491000651CED0A04D0002201231B05803C240302
:104920007740644497B484B296B27443070C7E43D4
:10493000150C6F4380B26843361802D3012000047F
:104940003F183004350C00197D41844688B29AB274
:1049500050430C0C62431F0C7C438EB27E43921971
:1049600002D301263604A4191604170C3618674121
:1049700001BC81B29AB25143040C62431B0C5C43EC
:1049800080B25843121802D30120000424181004E6
:10499000130C401863412D185E410020474106BCAE
:1049A00088B293B258430C0C6343120C544389B23F
:1049B00051435B1802D301210904641819041A0C2D
:1049C000091862416D1856410020474118BCF90290
:1049D000720D1143F0026A0D1043ED020A0D03D16E
:1049E0006D1940414941013B124E9B1B7600B34279
:1049F0000ED26D0007D30130002671416646354363
:104A000001D1400840001B05C918E4072144F0BD4E
:104A10000BDA013306D1013004D101314F0D01D041
:104A20004908F2E7E1070020F0BD0136310500201A
:104A3000EBE70000FF030000F0B51C0D671E3F050B
:104A4000DB1BE70A6405640D02D0661CF60A04D07D
:104A5000002201231B05803C2403D0252D060026BF
:104A6000F6432E661E096E66CE0FF619B44649004F
:104A70004F0D02D07E1CF60A03D000200021403FDB
:104A80003F033E1BB600B444013F7F05C91B4908E4
:104A90002E6F013676089C02950D25437543ED1364
:104AA0007543AD1301356D10F603761B0CB4CC02C3
:104AB000450D2C43A2B2B3B25A43270C7B43350CAD
:104AC0006F43A4B26C431B1902D3012424043F1981
:104AD0001C041D0CA4187D4124196D41009A91B24B
:104AE000ACB26143170C7C432B0C5F4392B25A4328
:104AF000A41802D301221204BF182204230C521856
:104B00007B41019C6C431B19520ED9010A4344019D
:104B1000A01A81B2B2B2514303145A43360C734304
:104B200087B27743D617D21900277E4136049B19E6
:104B30001704160C7F185E417316ED18F30100265A
:104B400080337541A90F06D16400690AE8055B0A44
:104B5000184309D22FE00422944480337541A90AF6
:104B6000A8059B0A184326D3404149412404009AD2
:104B7000019B0D005543641B4343E41A95B286B272
:104B80007543170C7E43030C5F4392B25A43B61829
:104B900002D301221204BF183204330C52197B4194
:104BA00052429C41002C02D4002201305141400865
:104BB000CA071043490802B06246D7079210084B53
:104BC000D218084B9A4203D212058918C919F0BDB0
:104BD0000020002A01DC3900F0BD01331905F5E79A
:104BE000FD030000FE070000002200B5203200F0A7
:104BF00004F8080000BD000000220B150AD410B50F
:104C0000944600F031F81414013400DA0021CB1777
:104C1000144C20470020002170476244343A0CD4E1
:104C20000C2A07DA04009140904052422032D440CE
:104C3000214310BDD843D94310BD203207D40C46C0
:104C40009440524220321141D040204310BD080010
:104C5000C917203203D452422032104110BD18002F
:104C6000190010BD1B4C00100A0DCC0F531E1B0564
:104C7000C91A520503D3C943404200D30131520D32
:104C800003D0531CDB0A07D0121B00206400611CF8
:104C900089078912803A1203014BD21A704700002B
:104CA000FF03000051434343C9188C46110C83B2E3
:104CB0004B4310B4040C614392B280B25043624340
:104CC0001C041B0C001910BC59411304120CC01811
:104CD0005141614470470000484041404840002332
:104CE0009C46114B5B68184700239C460E4B1B6883
:104CF00018470E4A936F9B0804D200239C460A4B28
:104D0000DB681847F0B5146E556E576F166FFFF7D6
:104D1000F4FF064A1466556657671667F0BD002310
:104D20009C46014B9B68184718490020000000D0A2
:104D3000491A002808D1084670470000C10FC9076A
:104D400000D54042002817D0F44603B40B4B1B6833
:104D5000984706BC81409E384042803107D20B06FE
:104D600007D04900490AC005104308436047013095
:104D7000F8E7490A8902F5E7704700001449002066
:104D800041000A0E80231B067E2A0BDD9E3A0BDAB9
:104D9000C1174002400818435242D0404900013137
:104DA0004843704700207047C00FC0180138704753
:104DB000C0420DD300B540004008002100F012F8B9
:104DC000002801D4404200BD8020000600BD000044
:104DD000034BDB69FC4618471CDF254F0010000021
:104DE0001849002000239C46014B5B6A18470000CD
:104DF0001849002070B513231E782A48FFF7C8F819
:104E00000500012E11D0012E09DDAB1E1B789B0081
:104E10007F2B40DD24488022290000F09DF82348A4
:104E2000FFF7AEF8224B186070BD1F4854222900CE
:104E300000F092F81F4B1A881F4B9A421CD1A723EF
:104E40009B011A881D4B9A4216D11D4B1A881D4B87
:104E50009A4211D11C4B1A8894239B019A420BD180
:104E60001A4B1A881A4B9A4206D11A4B1A681A4BD7
:104E70009A4201D1152307E01848FDF78BFF184C23
:104E8000094A99008C5001331F2BF8D9144B064A5C
:104E90001362D361B7E7134B134A14484221FDF75D
:104EA00099FEC04653460000184900204C330000CC
:104EB00014490020EE290000C40F0000C20D0000BC
:104EC000962B0000C0B50000182B0000CC2A000073
:104ED00010B50000FC2C000051ED87642086001006
:104EE000F14E0010D493001050940010089400105C
:104EF00007B56046002800D100BE01880A0A0230CA
:104F0000DF2AFAD1C9B2820804D30288408800049B
:104F1000104300E00068024A5050039007BD0000B3
:104F2000184900200021C2158032803201D0024A87
:104F30001047002070470000CD2A000001480421DE
:104F4000014B1847C0400020A13F0010014B1B68D7
:104F500018470000C0400020014B5B681847000064
:104F6000C040002010B50300080011001B689847DE
:104F700010BD0000F8B507000D001600437D002BA2
:104F800002D0002400200CE003681100280098479C
:104F90002DE03B7D10E03B68154802219847601CDE
:104FA0000134B44214DA002CF3DD2B19013B1B78D9
:104FB0000D3B5A425341DBB22A5D0A2AF0D1002B45
:104FC000EED1A042E7DA3B68211A28189847E2E7B9
:104FD000B04203DA3B68311A28189847002E06DDE4
:104FE000AD19013D2B780D3B5A4253413B75F8BD3D
:104FF0001C95001070B505000368002B16D00C4BF3
:105000001C6805E0290004C92000FFF7B3FF2469EC
:10501000002C09D02368002BF9D0064B1B68002B0D
:10502000F0D0A342F3D1EDE700232B6070BDC04662
:10503000F0460020F446002070B505000C000B6817
:10504000802B05D023685A1C2260E418257170BD9E
:105050000800FFF7CFFFF5E710B5002B02DB026079
:10506000436010BD024B034A03483F21FDF7B2FDE8
:10507000FC89001020950010188A001010B582B02D
:105080000400FDF73BF802000B006846FFF7E4FF61
:10509000009A019B22606360200002B010BD0000F6
:1050A00070B582B0060014001D00FA2292000023A1
:1050B00006980021FFF7F6FD02000B0012196B4164
:1050C000002B09DB6846FFF7C7FF009A019B32609F
:1050D0007360300002B070BD01225242004BF1E714
:1050E000FFFFFF7F30B585B004000D0002A8FFF779
:1050F000C5FF029A039B00952000FFF7D1FF200017
:1051000005B030BD00B583B0FA2189006846FFF7CD
:10511000E9FF009A019B024800F0EEFB03B000BDDE
:105120001845002010B5024800F0CEFB10BDC04667
:1051300018450020F0B5CE46474680B583B006003E
:105140000D0090461C00FFF7DDFF81466B1C05D06B
:10515000002C08D0194F1A4B1C6807E0300000F0F3
:1051600053FB0500F4E7174FF5E72469002C17D02F
:105170002368002BF9D0144B1B68002B01D0A342ED
:10518000F3D12A0031002000B8474346002BECD071
:105190006B46D91D0A230B7001222000B847E4E7B3
:1051A0004B46002B07D16B1E9D41E8B203B0C0BC3B
:1051B000B946B046F0BDFFF7B5FFF4E7654F001004
:1051C000F0460020754F0010F446002010B582B064
:1051D00004006B46D81D0470002300220121FFF754
:1051E000A9FF200002B010BD094A01E010331A00E7
:1051F0001368002B08D08342F8D1002907D1036936
:1052000013600023036102E0002900D010607047A2
:10521000F046002010B5064B1C6801E09847246951
:10522000002C03D06368002BF8D1F8E710BDC0460E
:10523000F046002070B5050000F0E6FA04000023F7
:10524000012201002800FFF775FFFFF7E3FF2000B0
:1052500070BD000070B5A2B004000E00FFF752FF51
:105260000500002301930A483300220001A9FEF73C
:105270006FFE040001A8FFF7BDFEFFF7CBFF002D76
:1052800002D1200022B070BDFFF74CFFF9E7C04605
:10529000395000100FB400B583B004A901C90191C1
:1052A000FFF7D8FF03B008BC04B0184710B500F0F2
:1052B000FFF8012010BD000010B582B00C00144BA7
:1052C000C3185A425341134A5B009B5E8B4204D081
:1052D0006B46DA1D1470002115E06B46DA1D0D23B4
:1052E000137000210029F3D183699B06FCD4137845
:1052F000036001310132F5E783699B06FCD4137822
:105300000360013101320029F6D002B010BDC04661
:105310000080FCBF2C4A002082B000226B46D91DC1
:1053200006E08369DB06FCD403680B7001320131AF
:10533000002AF6D06B46D87902B0704770B50600E7
:105340000D00002405E0315D034B1868FFF7B4FF42
:105350000134AC42F7DB70BD304A0020F8B50600DE
:105360000D00002705E07C1CF719FFF7D5FF38700A
:105370002700AF4204DA0E4A10688269D206F2D5DD
:105380000C4A1268002A0CD0094A12685021916315
:1053900010003430526B1839114080225201024300
:1053A0001160002F01D03800F8BD033FFBE7C04675
:1053B000304A00207C46002010B5064B1B68002BAD
:1053C00006D0054A126800219163044A1068984784
:1053D00010BDC0467C460020304A00208046002098
:1053E00070B505000E001C4B1A681C4BD3185942AF
:1053F0004B4114331C0000281ED0194B1B68002B96
:1054000004D0174B1D60174B1E6070BD164920005D
:10541000FCF720F801212000FCF70CF80E4B1B686C
:1054200050229A63190034315B6B183A1A4080237A
:105430005B010B431A60E4E7094B1B68002BE0D0CB
:105440000023936300212000FBF7F4FF06492000AE
:10545000FCF72AF8D5E7C046304A00200080FCBFA0
:105460007C46002080460020B953001070B50D0026
:105470001C000D4B1860002A0BDA002C0EDA0A4BC8
:1054800018682900FDF758F908480121FFF7ACFE1C
:1054900070BD02211000FBF78FFEEEE70221200015
:1054A000FBF78AFEEBE7C046304A0020D0400020E0
:1054B00010B5064B1B78064B1B78E1210123002217
:1054C00049020448FFF7D2FF10BDC0463C960010C9
:1054D000389600100040034010B50400102200214F
:1054E000FFF734FD80235B022360F8235B026360D7
:1054F0008023DB02A360C0231B03A360200010BD38
:105500000523CB56002B01DB934211D1094B9C465E
:10551000604443425841084B8000C0580979012338
:105520008B40013B9340184043425841C0B2704702
:105530000020FCE70000D0AF6046002070B50A797B
:10554000202A19D8174B9C46604443425841164BB9
:105550008000C45801239340013B497949B2002996
:1055600010DB08002025AA1A914218DC8B401C424F
:1055700001D00120404270BD0C4B0D4A0D48402126
:10558000FDF728FB2020801A002805DB1A00824046
:105590001442F0D00138F7E701204042EBE7012048
:1055A0004042E8E70000D0AF604600207895001048
:1055B000F8950010A495001070B505000C001600B9
:1055C000FFF79EFF002801D0002107E01648FDF7F5
:1055D000E1FB8B1912339B005A51013123798B4225
:1055E00011D9227863781B021343A27812041A435C
:1055F000E3781B0613434A009A5A80239B019A4280
:10560000E7D29219E5E701229A401300013B074ACD
:10561000944665446A4255410549AD006A58B34015
:1056200013436B5070BDC046E49500100000D0AF2E
:1056300060460020F8B505000E00FBF721FE0700CC
:1056400031002800FFF77AFF041E09DB0200310059
:105650002800FFF7B1FF3800FBF71EFE2000F8BD61
:105660000148FDF797FBC046E4950010F0B5C6462B
:1056700000B506AC25784C006618F6008619370090
:10568000DC373F68BC46CC363668B0466418E40068
:10569000C83404190434C026B60134438026B60247
:1056A0002660002D01D01F2614E0002612E05401D0
:1056B000A0256D0525434C006418E400041927005B
:1056C000DC373D60114D3543D8342560053B05324C
:1056D0001F242240052BEAD89B06520113434C009D
:1056E0006218D20082181500DC352B60074B33435B
:1056F000D832136063462B606418E4000019CC3084
:105700004346036080BCB846F0BDC04680E0000060
:1057100070B584B004000D00160002680121A94094
:105720008A430260002B34D0186869004919C90007
:1057300061180A00C8321060586804321060986816
:1057400004321060DB68DC310B606A005319DB0047
:10575000D033E318802149010B43802109061960E9
:105760001960164BAB40A3602B1D01210800984027
:1057700080239B0123431860280008308140196072
:105780001F2333405219D200A418D834236004B028
:1057900070BD6846FFF7A0FE00996B005B19DB0047
:1057A000E3181A00C832116001990432116002999D
:1057B00004321160039ADC331A60C6E7010101016B
:1057C0000022034B1B68A83318605A607047C0461C
:1057D000E8400020094B10B51C68094AA83420682D
:1057E0006168084BFFF75EFA0122002380185941D7
:1057F000206061604800400810BDC046E8400020BD
:105800002D7F954C2DF4515810B583070AD0030015
:10581000032102E001330B4205D01A78002AF9D1A6
:10582000181A10BD030019680C4A0D4C8A188A43D7
:1058300022420FD15968094A04338A188A43224206
:1058400008D15968054A04338A188A432242F1D0A4
:1058500000E001331A78002AFBD1E1E7FFFEFEFEEB
:105860008080808010B50B4B84B004000022694614
:10587000186800F011F8002807DB00980199002C47
:1058800001D02060616004B010BD01204042C1170A
:10589000F5E7C046E8400020002370B5074D04003E
:1058A000080011002B60FDF751FA431C00D070BDB9
:1058B0002B68002BFBD02360F9E7C0465C46002034
:1058C000F8B5C0460000000001B40248844601BC9F
:1058D000604700BFC901002001B40248844601BCF2
:1058E000604700BF1502002001B40248844601BC95
:1058F000604700BF1502002001B40248844601BC85
:08590000604700BF9501002083
:105908000AE2969100000000E29688E29693E296F9
:1059180092E29691205468652072756C65732061D7
:10592800726520617320666F6C6C6F77733A000044
:10593800E29688E29693E29692E2969120312E20A2
:10594800456E74657220746865206368617261636E
:1059580074657220646973706C6179656420696E1E
:10596800206D6F7273650000E29688E29693E29666
:1059780092E2969120322E20496620796F75206731
:10598800657420697420636F727265637420796F1F
:1059980075206761696E2061206C6966650000008A
:1059A800E29688E29693E29692E2969120332E2030
:1059B8004F746865727769736520796F75206C6FAD
:1059C80073652061206C6966652E20546865204CDB
:1059D80045442077696C6C20696E646963617465FD
:1059E80020686F77206D616E79206C697665732009
:1059F800796F75206861766500000000E29688E29C
:105A08009693E29692E2969120342E204966207968
:105A18006F752074616B65206C6F6E67657220749A
:105A280068616E2039207365636F6E647320746FCC
:105A380020696E7075742061206368617261637497
:105A48006572207468652067616D652077696C6C84
:105A58002072657365740000E29688E29693E29678
:105A680092E2969120352E20496620796F75206C38
:105A78006F736520616C6C2033206C6976657320C8
:105A88007468652067616D652077696C6C20656E48
:105A98006400000028436F6D706C657465642900AC
:105AA800202020202020202020202000E29688E2AC
:105AB8009693E29692E296912055534520475032AC
:105AC8003120544F20454E544552204120534551D2
